{
  "contractName": "ItemCreator",
  "abi": [
    {
      "constant": true,
      "inputs": [
        {
          "name": "owner",
          "type": "address"
        }
      ],
      "name": "getItemsByOwner",
      "outputs": [
        {
          "components": [
            {
              "name": "itemProp",
              "type": "uint256"
            }
          ],
          "name": "",
          "type": "tuple[]"
        }
      ],
      "payable": false,
      "stateMutability": "view",
      "type": "function"
    },
    {
      "constant": true,
      "inputs": [],
      "name": "getItems",
      "outputs": [
        {
          "components": [
            {
              "name": "itemProp",
              "type": "uint256"
            }
          ],
          "name": "",
          "type": "tuple[]"
        }
      ],
      "payable": false,
      "stateMutability": "view",
      "type": "function"
    },
    {
      "constant": true,
      "inputs": [
        {
          "name": "itemId",
          "type": "uint256"
        }
      ],
      "name": "getOwnerByItemId",
      "outputs": [
        {
          "name": "",
          "type": "address"
        }
      ],
      "payable": false,
      "stateMutability": "view",
      "type": "function"
    },
    {
      "constant": false,
      "inputs": [
        {
          "name": "timestamp",
          "type": "string"
        }
      ],
      "name": "test",
      "outputs": [],
      "payable": false,
      "stateMutability": "nonpayable",
      "type": "function"
    },
    {
      "anonymous": false,
      "inputs": [
        {
          "indexed": false,
          "name": "itemProp",
          "type": "uint256"
        }
      ],
      "name": "Log",
      "type": "event"
    }
  ],
  "bytecode": "0x6060604052600f600055600054600a0a600155341561001d57600080fd5b61061e8061002c6000396000f300606060405260043610610062576000357c0100000000000000000000000000000000000000000000000000000000900463ffffffff1680632c67a8e514610067578063410d59cc146100f05780637c2dc7d414610155578063f9fbd554146101b8575b600080fd5b341561007257600080fd5b61009e600480803573ffffffffffffffffffffffffffffffffffffffff16906020019091905050610215565b60405180806020018281038252838181518152602001915080516000925b818410156100df57828490602001906020020151815260200192600101926100bc565b925050509250505060405180910390f35b34156100fb57600080fd5b6101036102c1565b60405180806020018281038252838181518152602001915080516000925b818410156101445782849060200190602002015181526020019260010192610121565b925050509250505060405180910390f35b341561016057600080fd5b610176600480803590602001909190505061032e565b604051808273ffffffffffffffffffffffffffffffffffffffff1673ffffffffffffffffffffffffffffffffffffffff16815260200191505060405180910390f35b34156101c357600080fd5b610213600480803590602001908201803590602001908080601f0160208091040260200160405190810160405280939291908181526020018383808284378201915050505050509190505061036b565b005b61021d610577565b600460008373ffffffffffffffffffffffffffffffffffffffff1673ffffffffffffffffffffffffffffffffffffffff168152602001908152602001600020805480602002602001604051908101604052809291908181526020016000905b828210156102b65783829060005260206000209001602060405190810160405290816000820154815250508152602001906001019061027c565b505050509050919050565b6102c9610577565b6002805480602002602001604051908101604052809291908181526020016000905b82821015610325578382906000526020600020900160206040519081016040529081600082015481525050815260200190600101906102eb565b50505050905090565b60006003600083815260200190815260200160002060009054906101000a900473ffffffffffffffffffffffffffffffffffffffff169050919050565b600061037561058b565b6000610380846104cc565b92506020604051908101604052808481525091506001600280548060010182816103aa919061059f565b91600052602060002090016000859091909150600082015181600001555050039050336003600083815260200190815260200160002060006101000a81548173ffffffffffffffffffffffffffffffffffffffff021916908373ffffffffffffffffffffffffffffffffffffffff160217905550600460003373ffffffffffffffffffffffffffffffffffffffff1673ffffffffffffffffffffffffffffffffffffffff168152602001908152602001600020805480600101828161046f919061059f565b91600052602060002090016000849091909150600082015181600001555050507f909c57d5c6ac08245cf2a6de3900e2b868513fa59099b92b27d8db823d92df9c836040518082815260200191505060405180910390a150505050565b6000806002836000604051602001526040518082805190602001908083835b60208310151561051057805182526020820191506020810190506020830392506104eb565b6001836020036101000a03801982511681845116808217855250505050505090500191505060206040518083038160008661646e5a03f1151561055257600080fd5b5050604051805190506001900490506001548181151561056e57fe5b06915050919050565b602060405190810160405280600081525090565b602060405190810160405280600081525090565b8154818355818115116105c6578183600052602060002091820191016105c591906105cb565b5b505050565b6105ef91905b808211156105eb57600080820160009055506001016105d1565b5090565b905600a165627a7a7230582035afa3b5853ef0e0fb889793831adfc37daa842de6cafd7d6fceb70050f9d44f0029",
  "source": "pragma solidity 0.4.18;\r\n\r\n\r\ncontract ItemCreator {\r\n\r\n    event Log(uint itemProp);\r\n\r\n    uint private itemPropDigits = 15;\r\n    uint private itemPropModulus = 10 ** itemPropDigits;\r\n\r\n    struct Item {\r\n        uint itemProp;\r\n    }\r\n\r\n    Item[] private items;\r\n\r\n    mapping(uint => address) private itemToOwner;\r\n    mapping (address => Item[]) private ownerToItems;\r\n\r\n    function test(string timestamp) public {\r\n        uint randProps = _randomItemProps(timestamp);\r\n        Item memory item = Item(randProps);\r\n        uint id = items.push(item) - 1;\r\n        itemToOwner[id] = msg.sender;\r\n        ownerToItems[msg.sender].push(item);\r\n        Log(randProps);\r\n    }\r\n\r\n    function getOwnerByItemId(uint itemId) public view returns (address) {\r\n        return itemToOwner[itemId];\r\n    }\r\n\r\n    function getItemsByOwner(address owner) public view returns (Item[]) {\r\n        return ownerToItems[owner];\r\n    }\r\n\r\n    function getItems() public view returns (Item[]) {\r\n        return items;\r\n    }\r\n\r\n    function _randomItemProps(string timestamp) private view returns (uint) {\r\n        uint rand = uint(sha256(timestamp));\r\n        return rand % itemPropModulus;\r\n    }\r\n}",
  "sourcePath": "C:\\Users\\Jic\\Documents\\react-native-items-ethereum\\contracts\\ItemCreator.sol",
  "compiler": {
    "name": "solc",
    "version": "0.4.18+commit.9cf6e910.Emscripten.clang"
  },
  "schemaVersion": "1.0.1",
  "updatedAt": "2018-02-22T03:24:38.766Z"
}